:020000040000FA
:04000000F6EF11F016
:10060000003F065B4F666D7D077F6F777C395E79B3
:1006100071554C44525358414259732044656669A0
:100620006E61206F2074656D706F3A0A28706F7468
:10063000656E63696F6D6574726F290020506F7409
:10064000656E6369610A2047656C61646569726102
:100650000020506F74656E6369613A0A204D494EFF
:10066000494D4F0020506F74656E6369613A0A20EE
:100670004D4158494D4F0020506F74656E6369615C
:100680000A20467265657A65720020506F74656E47
:100690006369613A0A204D4544494F002054696D11
:1006A00065720A2047656C61646569726100205457
:1006B000696D65720A20467265657A657200494EF9
:1006C0004943494F0000D7EC11F092EC11F018ECBF
:1006D00011F0EEEC0EF011EC12F0E7EC12F0800EDF
:1006E000C9EC12F0C7EC0CF0E8EC0DF06CEC12F079
:1006F000F4EC12F039501F1809E13A502018D8B420
:1007000084EF03F086EF03F029EF05F0F4EC12F02C
:100710001FC039F020C03AF039A091EF03F093EFF9
:1007200003F0C8EF03F01504D8A499EF03F09BEF92
:1007300003F09FEF03F0000E156EC8EF03F0010EFB
:10074000C9EC12F01450D8A4A8EF03F0AAEF03F0FC
:10075000AEEF03F0010E146EC8EF03F0050E146443
:10076000B4EF03F0B6EF03F0C8EF03F01350D8A4D2
:10077000BCEF03F0BEEF03F0C2EF03F03EC03DF06C
:10078000C4EF03F03EC03CF0000E146EC8EF03F05F
:1007900039A2CDEF03F0CFEF03F019EF04F01450BE
:1007A000D8B4D5EF03F0D7EF03F0F1EF03F0050E67
:1007B0001460DDEF03F0DFEF03F0F1EF03F0010E63
:1007C000C9EC12F01404146E1450D8A4EAEF03F02C
:1007D000ECEF03F0F1EF03F0010EC9EC12F0040EA0
:1007E000146E050E1464F7EF03F0F9EF03F019EF40
:1007F00004F0010EC9EC12F01404146E060E14601D
:1008000004EF04F006EF04F00BEF04F0010EC9EC66
:1008100012F0080E146E1350D8A411EF04F013EF69
:1008200004F017EF04F014C03DF019EF04F014C009
:100830003CF039A61EEF04F020EF04F06AEF04F05C
:100840001450D8B426EF04F028EF04F042EF04F07F
:10085000050E14602EEF04F030EF04F042EF04F0C8
:10086000010EC9EC12F01428146E040E14643BEF50
:1008700004F03DEF04F042EF04F0010EC9EC12F079
:10088000010E146E050E146448EF04F04AEF04F0F4
:100890006AEF04F0010EC9EC12F01428146E080E71
:1008A000146455EF04F057EF04F05CEF04F0010E10
:1008B000C9EC12F0060E146E1350D8A462EF04F0C7
:1008C00064EF04F068EF04F014C03DF06AEF04F048
:1008D00014C03CF039A46FEF04F071EF04F020EF86
:1008E00005F0800EC9EC12F0010EC9EC12F01204F2
:1008F000D8A47DEF04F07FEF04F08EEF04F0050E36
:10090000146485EF04F087EF04F08EEF04F0010E1D
:10091000C9EC12F0000E146E000E126E1404D8B45E
:1009200094EF04F096EF04F0A7EF04F0020E141811
:10093000D8B49DEF04F09FEF04F0A7EF04F0050E8C
:100940001464A5EF04F0A7EF04F0DBEF04F0140447
:10095000D8A4ADEF04F0AFEF04F0B3EF04F0000E55
:10096000136EBEEF04F0020E1418D8A4BAEF04F010
:10097000BCEF04F0BEEF04F0010E136E070E146E10
:10098000050E1464C6EF04F0C8EF04F0DBEF04F0CA
:10099000010EC9EC12F0010E126E1350D8A4D3EF61
:1009A00004F0D5EF04F0D9EF04F03DC03EF0DBEFEA
:1009B00004F03CC03EF0050E1418D8A4E2EF04F099
:1009C000E4EF04F0F8EF04F01704D8A4EAEF04F021
:1009D000ECEF04F0F0EF04F0090E3D6EF2EF04F0DE
:1009E000090E3C6E020E166E000E146E000E176E8F
:1009F000030E1418D8B4FFEF04F001EF05F00AEF6E
:100A000005F0040E1418D8A408EF05F00AEF05F05D
:100A100020EF05F0010EC9EC12F0030E1418D8A453
:100A200014EF05F016EF05F01AEF05F0010E176E42
:100A30001CEF05F0020E176E010E166E050E146EF9
:100A400039A825EF05F027EF05F029EF05F0010E95
:100A5000156E000E356E3D50FB0FECEC10F0010EE4
:100A6000356E3C50FB0FECEC10F039EF06F0020E47
:100A7000356E000EECEC10F0030E356E000EECEC53
:100A800010F052EF06F0000E206E000E1F6E43ECC9
:100A900011F01FC023F020C024F0000E266E090EB6
:100AA000256EA7EC12F023C005F024C006F0000E5E
:100AB00006BEFF0E076E086E020E356EE80E236E40
:100AC000030E246E000E256E000E266E05C01FF06C
:100AD00006C020F007C021F008C022F048EC0FF05B
:100AE0001FC02CF020C02DF021C02EF022C02FF00E
:100AF0000A0E306E000E316E000E326E000E336E36
:100B0000DEEC0FF02C50ECEC10F0030E356E640EA2
:100B1000236E000E246E000E256E000E266E05C09C
:100B20001FF006C020F007C021F008C022F048ECFA
:100B30000FF01FC02CF020C02DF021C02EF022C0DD
:100B40002FF00A0E306E000E316E000E326E000E67
:100B5000336EDEEC0FF02C50ECEC10F052EF06F0A0
:100B6000020E356EE80E236E030E246E000E256E07
:100B7000000E266E05C01FF006C020F007C021F051
:100B800008C022F048EC0FF01FC02CF020C02DF060
:100B900021C02EF022C02FF00A0E306E000E316EF2
:100BA000000E326E000E336EDEEC0FF02C50ECECCB
:100BB00010F0030E356E640E236E000E246E000ED0
:100BC000256E000E266E05C01FF006C020F007C07F
:100BD00021F008C022F048EC0FF01FC02CF020C01C
:100BE0002DF021C02EF022C02FF00A0E306E000E24
:100BF000316E000E326E000E336EDEEC0FF02C50B4
:100C0000ECEC10F00506000E065A075A085A05507B
:100C1000061007100810D8A410EF06F012EF06F027
:100C200052EF06F0960E5CEC10F0030ED8EC12F0CA
:100C3000000E5CEC10F0000E166E090E3D18D8A4E4
:100C400024EF06F026EF06F02AEF06F0070E3D6EC1
:100C500052EF06F0090E3C18D8A431EF06F033EF3E
:100C600006F037EF06F0070E3C6E52EF06F052EF3B
:100C700006F01650376E386A3850000AD8B443EF81
:100C800006F052EF06F03750000AD8B437EF05F0FF
:100C9000010AD8B443EF05F0030AD8B4B0EF05F069
:100CA00052EF06F05CEC0BF0000E016E000E026ECF
:100CB000000E036E000E046E01C01FF002C020F093
:100CC00003C021F004C022F0000E236E000E246E3B
:100CD000FA0E256E420E266E6CEC0EF0D8A073EF65
:100CE00006F075EF06F077EF06F06FEF03F001C046
:100CF0001FF002C020F003C021F004C022F0000E5B
:100D0000236E000E246E800E256E3F0E266EAEEC16
:100D100006F01FC001F020C002F021C003F022C085
:100D200004F001C01FF002C020F003C021F004C095
:100D300022F0000E236E000E246EFA0E256E420E77
:100D4000266E6CEC0EF0D8A0A8EF06F0AAEF06F025
:100D500077EF06F06FEF03F000EF00F02250800B0A
:100D60002B6E225022242D6E21AEB9EF06F0BBEF80
:100D700006F0BCEF06F02D802D50D8B4C2EF06F07F
:100D8000C4EF06F0D9EF06F02D28D8A4CAEF06F07C
:100D9000CCEF06F0D4EF06F0000E1F6E000E206EB2
:100DA000000E216E000E226E218E000E226EE1EFEB
:100DB00006F0000E1F6E000E206E000E216E000E5B
:100DC000226E2650800B2C6E2B502C18D8B4EBEFD3
:100DD00006F0EDEF06F0EEEF06F02B8C2650262401
:100DE0002C6E25AEF6EF06F0F8EF06F0F9EF06F000
:100DF0002C802C50D8B4FFEF06F001EF07F016EF6F
:100E000007F02C28D8A407EF07F009EF07F011EF3F
:100E100007F0000E236E000E246E000E256E000EED
:100E2000266E258E000E266E1EEF07F0000E236E36
:100E3000000E246E000E256E000E266E2D502C5CCA
:100E4000D8B025EF07F027EF07F04EEF07F02BACF7
:100E50002CEF07F02EEF07F030EF07F0800E2B1A83
:100E60002DC02EF02CC02DF02EC02CF01FC02EF067
:100E700023C01FF02EC023F020C02EF024C020F08D
:100E80002EC024F021C02EF025C021F02EC025F068
:100E900022C02EF026C022F02EC026F0000E2E6EAC
:100EA0002D502CC027F0286A275E000E285A28BE35
:100EB00063EF07F0285009E11A0E275CD8A063EF12
:100EC00007F065EF07F09CEF07F01F50201021108E
:100ED0002210D8A46EEF07F071EF07F0010E72EF49
:100EE00007F0000E2E6E000E1F6E000E206E000E1C
:100EF000216E000E226E2CC02DF0A5EF07F02EA063
:100F000084EF07F086EF07F08CEF07F0D8902E30D3
:100F100001092E6E8EEF07F0D8902E321FA093EFAE
:100F200007F095EF07F096EF07F02E8E223422326D
:100F3000213220321F322D2A2C502D5CD8A0A3EF55
:100F400007F0A5EF07F07FEF07F02BBCAAEF07F043
:100F5000ACEF07F0ECEF07F02D50D8A4B2EF07F09C
:100F6000B4EF07F0BEEF07F0000E1F6E000E206E0C
:100F7000000E216E000E226E0DEF09F023501F2689
:100F800024502022255021222650222222A0CBEFBD
:100F900007F0CDEF07F079EF08F02EA0D2EF07F0C1
:100FA000D4EF07F0DAEF07F0D8902E3001092E6E5B
:100FB000DCEF07F0D8902E321FA0E1EF07F0E3EF4F
:100FC00007F0E4EF07F02E8E223422322132203255
:100FD0001F322D2A79EF08F023501F5C245020582F
:100FE000255021582250800A276E2650800A275803
:100FF000D8B0FDEF07F0FFEF07F02AEF08F01F5021
:10100000235C276E20502458286E21502558296EC5
:10101000225026582A6EFF0E27241F6EFF0E28200E
:10102000206EFF0E2920216EFF0E2A20226E800ED8
:101030002B1A2E6C2E50D8A420EF08F022EF08F0C7
:1010400032EF08F0010E1F26000E2022212222225C
:1010500032EF08F023501F5E2450205A2550215AA9
:101060002650225A1F50201021102210D8A43BEFE6
:1010700008F03DEF08F072EF08F02E50D8A443EFCF
:1010800008F045EF08F072EF08F0000E1F6E000E3A
:10109000206E000E216E000E226E0DEF09F0D8902A
:1010A0001F362036213622362EAE59EF08F05BEF80
:1010B00008F05CEF08F01F802EA061EF08F063EFEE
:1010C00008F067EF08F0D8802E3669EF08F0D89066
:1010D0002E362D50D8B46FEF08F071EF08F072EF94
:1010E00008F02D0621AE77EF08F079EF08F04FEF0A
:1010F00008F0000E2C6E2EAE80EF08F082EF08F0A4
:101100009AEF08F02EC027F07F0E2716D8B48BEF89
:1011100008F08DEF08F091EF08F0010E2C6E9AEFB9
:1011200008F01FA096EF08F098EF08F09AEF08F08B
:101130008DEF08F02C50D8B4A0EF08F0A2EF08F023
:10114000CDEF08F0010E1F26000E202221222222C0
:1011500022A0ADEF08F0AFEF08F0CDEF08F01FC010
:1011600027F020C028F021C029F022C02AF02A341C
:101170002A3229322832273227C01FF028C020F017
:1011800029C021F02AC022F02D28D8B4CAEF08F0D7
:10119000CCEF08F0CDEF08F02D2A2D28D8B4D3EFEE
:1011A00008F0D5EF08F0DDEF08F02D50D8A4DBEF04
:1011B00008F0DDEF08F0EFEF08F0000E1F6E000EF4
:1011C000206E000E216E000E226E2D50D8A4EBEF83
:1011D00008F0EDEF08F0EFEF08F0000E2B6E2DA0F9
:1011E000F4EF08F0F6EF08F0F9EF08F0218EFAEFCF
:1011F00008F0219ED8902D30226E2BAE02EF09F020
:1012000004EF09F005EF09F0228E1FC01FF020C087
:1012100020F021C021F022C022F0120020BE1CEFDD
:1012200009F0205007E1080E1F5CD8B01AEF09F052
:101230001CEF09F046EF09F021502210D8B423EF3B
:1012400009F025EF09F035EF09F01FC023F0010E7A
:10125000246E232A2EEF09F0D8902436232E2CEF6B
:1012600009F02450801234EF0AF01FC023F0010E61
:10127000246E232A3EEF09F0D8902436232E3CEF2B
:1012800009F02450FF0A801634EF0AF020BE54EF14
:1012900009F0205007E1100E1F5CD8B052EF09F0A2
:1012A00054EF09F082EF09F0F80E1F26FF0E2022FE
:1012B00021502210D8B45FEF09F061EF09F071EF0F
:1012C00009F01FC023F0010E246E232A6AEF09F0F3
:1012D000D8902436232E68EF09F02450811234EF81
:1012E0000AF01FC023F0010E246E232A7AEF09F0C2
:1012F000D8902436232E78EF09F02450FF0A811667
:1013000034EF0AF020BE90EF09F0205007E1180EEC
:101310001F5CD8B08EEF09F090EF09F0BEEF09F036
:10132000F00E1F26FF0E202221502210D8B49BEF72
:1013300009F09DEF09F0ADEF09F01FC023F0010E99
:10134000246E232AA6EF09F0D8902436232EA4EF8A
:1013500009F02450821234EF0AF01FC023F0010E6E
:10136000246E232AB6EF09F0D8902436232EB4EF4A
:1013700009F02450FF0A821634EF0AF020BECCEFA9
:1013800009F0205007E1200E1F5CD8B0CAEF09F029
:10139000CCEF09F0FAEF09F0E80E1F26FF0E20222D
:1013A00021502210D8B4D7EF09F0D9EF09F0E9EFB6
:1013B00009F01FC023F0010E246E232AE2EF09F08A
:1013C000D8902436232EE0EF09F02450831234EF16
:1013D0000AF01FC023F0010E246E232AF2EF09F059
:1013E000D8902436232EF0EF09F02450FF0A8316FC
:1013F00034EF0AF020BE08EF0AF0205007E1280E73
:101400001F5CD8B006EF0AF008EF0AF034EF0AF0DC
:10141000E00E1F26FF0E202221502210D8B413EF19
:101420000AF015EF0AF025EF0AF01FC023F0010EB5
:10143000246E232A1EEF0AF0D8902436232E1CEFA8
:101440000AF02450841234EF0AF01FC023F0010E7A
:10145000246E232A2EEF0AF0D8902436232E2CEF68
:101460000AF02450FF0A8416120020BE43EF0AF04F
:10147000205007E1080E1F5CD8B041EF0AF043EF9F
:101480000AF06DEF0AF021502210D8B44AEF0AF0AA
:101490004CEF0AF05CEF0AF01FC023F0010E246E3F
:1014A000232A55EF0AF0D8902436232E53EF0AF062
:1014B000245092125BEF0BF01FC023F0010E246E3C
:1014C000232A65EF0AF0D8902436232E63EF0AF022
:1014D0002450FF0A92165BEF0BF020BE7BEF0AF060
:1014E000205007E1100E1F5CD8B079EF0AF07BEFB7
:1014F0000AF0A9EF0AF021502210D8B482EF0AF0C6
:1015000084EF0AF096EF0AF01FC023F0F80E2326AE
:10151000010E246E232A8FEF0AF0D8902436232E52
:101520008DEF0AF0245093125BEF0BF01FC023F0F5
:10153000F80E2326010E246E232AA1EF0AF0D8907C
:101540002436232E9FEF0AF02450FF0A93165BEFF8
:101550000BF020BEB7EF0AF0205007E1180E1F5C19
:10156000D8B0B5EF0AF0B7EF0AF0E5EF0AF0215076
:101570002210D8B4BEEF0AF0C0EF0AF0D2EF0AF0A2
:101580001FC023F0F00E2326010E246E232ACBEF7A
:101590000AF0D8902436232EC9EF0AF02450941272
:1015A0005BEF0BF01FC023F0F00E2326010E246E1C
:1015B000232ADDEF0AF0D8902436232EDBEF0AF041
:1015C0002450FF0A94165BEF0BF020BEF3EF0AF0F5
:1015D000205007E1200E1F5CD8B0F1EF0AF0F3EFC6
:1015E0000AF021EF0BF021502210D8B4FAEF0AF0E4
:1015F000FCEF0AF00EEF0BF01FC023F0E80E2326DD
:10160000010E246E232A07EF0BF0D8902436232EE8
:1016100005EF0BF0245095125BEF0BF01FC023F089
:10162000E80E2326010E246E232A19EF0BF0D89022
:101630002436232E17EF0BF02450FF0A95165BEF8C
:101640000BF020BE2FEF0BF0205007E1280E1F5C9F
:10165000D8B02DEF0BF02FEF0BF05BEF0BF021501C
:101660002210D8B436EF0BF038EF0BF04AEF0BF046
:101670001FC023F0E00E2326010E246E232A43EF21
:101680000BF0D8902436232E41EF0BF02450961205
:101690005BEF0BF01FC023F0E00E2326010E246E3B
:1016A000232A55EF0BF0D8902436232E53EF0BF05E
:1016B0002450FF0A96161200000E206E180E1F6EA0
:1016C000000E226E000E216E0EEC09F0000E206E50
:1016D000190E1F6E000E226E000E216E0EEC09F028
:1016E000000E206E1A0E1F6E000E226E000E216E6E
:1016F0000EEC09F0000E206E1B0E1F6E000E226E07
:10170000000E216E0EEC09F0000E266E000E256E06
:101710006BEC11F0F4EF0BF0010E1C24F66EF76A7F
:10172000060EF7220800F550256E266A6BEC11F0C4
:10173000000E206E180E1F6E000E226E010E216E1E
:101740000EEC09F0010E1D6E11EF0CF0010E1B24C2
:10175000F66EF76A060EF7220800F550256E266A27
:101760006BEC11F0000E206E190E1F6E000E226E33
:10177000010E216E0EEC09F0020E1D6E11EF0CF041
:10178000010E1A24F66EF76A060EF7220800F550CD
:10179000256E266A6BEC11F0000E206E1A0E1F6E7D
:1017A000000E226E010E216E0EEC09F0030E1D6E6E
:1017B00011EF0CF0010E1924F66EF76A060EF722EF
:1017C0000800F550256E266A6BEC11F0000E206EB5
:1017D0001B0E1F6E000E226E010E216E0EEC09F024
:1017E000000E1D6E11EF0CF01D50286E296A295055
:1017F000000AD8B4FEEF0BF0F0EF0BF02850000A0F
:10180000D8B48CEF0BF0010AD8B4A6EF0BF0030AA2
:10181000D8B4C0EF0BF0010AD8B4DAEF0BF0F0EF58
:101820000BF0120020BE20EF0CF0205007E1080E54
:101830001F5CD8B01EEF0CF020EF0CF034EF0CF072
:101840001FC021F0010E226E212A29EF0CF0D89042
:101850002236212E27EF0CF022508014236E2350C5
:101860001F6E206AC6EF0CF020BE42EF0CF0205035
:1018700007E1100E1F5CD8B040EF0CF042EF0CF007
:1018800058EF0CF01FC021F0F80E2126010E226E39
:10189000212A4DEF0CF0D8902236212E4BEF0CF080
:1018A00022508114236E23501F6E206AC6EF0CF065
:1018B00020BE66EF0CF0205007E1180E1F5CD8B078
:1018C00064EF0CF066EF0CF07CEF0CF01FC021F021
:1018D000F00E2126010E226E212A71EF0CF0D89015
:1018E0002236212E6FEF0CF022508214236E2350EB
:1018F0001F6E206AC6EF0CF020BE8AEF0CF020505D
:1019000007E1200E1F5CD8B088EF0CF08AEF0CF0D6
:10191000A0EF0CF01FC021F0E80E2126010E226E70
:10192000212A95EF0CF0D8902236212E93EF0CF05F
:1019300022508314236E23501F6E206AC6EF0CF0D2
:1019400020BEAEEF0CF0205007E1280E1F5CD8B08F
:10195000ACEF0CF0AEEF0CF0C4EF0CF01FC021F0B8
:10196000E00E2126010E226E212AB9EF0CF0D8904C
:101970002236212EB7EF0CF022508414236E235010
:101980001F6E206AC6EF0CF01F6820681200000E60
:101990000E6E000E0D6E000E2C6E000E2B6E2CBE09
:1019A000DBEF0CF02C5009E1050E2B5CD8A0DBEF2F
:1019B0000CF0DDEF0CF0DFEF0CF040EF0DF02BC082
:1019C00028F0030E2826010E296E000E2A6E282A02
:1019D000EDEF0CF0D89029362A36282EEAEF0CF0DD
:1019E00029C025F02AC026F06BEC11F0000E206E05
:1019F0000A0E1F6E12EC0CF01F502010D8B403EF2B
:101A00000DF005EF0DF018EF0DF02BC028F0010ED2
:101A1000296E000E2A6E282A11EF0DF0D890293673
:101A20002A36282E0EEF0DF029500D122A500E12D4
:101A3000000E206E090E1F6E12EC0CF01F502010CD
:101A4000D8B425EF0DF027EF0DF03CEF0DF02BC0D3
:101A500028F0050E2826010E296E000E2A6E282A6F
:101A600035EF0DF0D89029362A36282E32EF0DF0BA
:101A700029500D122A500E122B4A2C2ACFEF0CF0AF
:101A80000D500B1807E10E500C18D8A44AEF0DF0BA
:101A90004CEF0DF04FEF0DF01E0655EF0DF0010E5F
:101AA0001E6E0DC00BF00EC00CF01E50D8A45BEFE4
:101AB0000DF05DEF0DF061EF0DF00BC00FF00CC0FD
:101AC00010F01200000E286E26BE6BEF0DF069EFCD
:101AD0000DF075EF0DF0261E251E241E236C000E42
:101AE000242225222622010E286E22BE7CEF0DF034
:101AF0007AEF0DF086EF0DF0221E211E201E1F6CC6
:101B0000000E202221222222010E281A000E296E08
:101B1000000E2A6E000E2B6E000E2C6E2350241029
:101B200025102610D8B497EF0DF099EF0DF0CFEFF8
:101B30000DF0010E276EA3EF0DF0D890233624365A
:101B400025362636272A26AEA8EF0DF0AAEF0DF08F
:101B50009DEF0DF0D89029362A362B362C3623509F
:101B60001F5C245020582550215826502258D8A0B8
:101B7000BCEF0DF0BEEF0DF0C7EF0DF023501F5E70
:101B80002450205A2550215A2650225A2980D89074
:101B90002632253224322332272EAAEF0DF0285088
:101BA000D8B4D5EF0DF0D7EF0DF0DFEF0DF02C1E10
:101BB0002B1E2A1E296C000E2A222B222C2229C021
:101BC0001FF02AC020F02BC021F02CC022F0120000
:101BD0003AEF0EF0BE0E2D6E060E2E6E9AEC0FF042
:101BE0006BEF0EF03C0E2D6E060E2E6E9AEC0FF083
:101BF0006BEF0EF0770E2D6E060E2E6E9AEC0FF038
:101C00006BEF0EF09C0E2D6E060E2E6E9AEC0FF002
:101C10006BEF0EF0AE0E2D6E060E2E6E9AEC0FF0E0
:101C20006BEF0EF01B0E2D6E060E2E6E9AEC0FF063
:101C30006BEF0EF0510E2D6E060E2E6E9AEC0FF01D
:101C40006BEF0EF08A0E2D6E060E2E6E9AEC0FF0D4
:101C50006BEF0EF0640E2D6E060E2E6E9AEC0FF0EA
:101C60006BEF0EF03B0E2D6E060E2E6E9AEC0FF003
:101C70006BEF0EF01450336E346A3450000AD8B44F
:101C800044EF0EF032EF0EF03350000AD8B4EAEF12
:101C90000DF0010AD8B4F2EF0DF0030AD8B4FAEF50
:101CA0000DF0010AD8B402EF0EF0070AD8B40AEF1B
:101CB0000EF0010AD8B412EF0EF0030AD8B41AEFEE
:101CC0000EF0010AD8B422EF0EF00F0AD8B42AEFB2
:101CD0000EF032EF0EF01200000E1F14276E000EF1
:101CE0002014286E800E2114296E7F0E22142A6E75
:101CF0002750281029102A10D8A481EF0EF083EF66
:101D00000EF08BEF0EF0000E1F6E000E206E000E18
:101D1000216E000E226E000E2314276E000E241476
:101D2000286E800E2514296E7F0E26142A6E2750E9
:101D3000281029102A10D8A4A0EF0EF0A2EF0EF060
:101D4000AAEF0EF0000E236E000E246E000E256E1C
:101D5000000E266E22AEAFEF0EF0B1EF0EF0BAEF2E
:101D60000EF01F6C201ED8B0202A211ED8B0212AC8
:101D7000800E225626AEBFEF0EF0C1EF0EF0CAEF76
:101D80000EF0236C241ED8B0242A251ED8B0252A94
:101D9000800E2656000E1F1A000E201A000E211A61
:101DA000800E221A000E231A000E241A000E251A85
:101DB000800E261A23501F5C24502058255021588D
:101DC00026502258D8B0E7EF0EF0E9EF0EF0ECEF16
:101DD0000EF0D890EDEF0EF0D8801200000E206EBD
:101DE0001C0E1F6E000E226E000E216E35EC0AF0E6
:101DF000000E206E1D0E1F6E000E226E000E216E54
:101E000035EC0AF0D7EC11F0000E206E0F0E1F6EAD
:101E10002AEC12F0000E296E000E286E030E94ECD0
:101E200012F0000E206E050E1F6E2AEC12F0000E4E
:101E3000296E000E286E030E94EC12F0000E206E38
:101E4000A00E1F6EFCEC12F0000E296E000E286E24
:101E5000030E94EC12F0000E206EA00E1F6EFCEC30
:101E600012F0000E296E000E286E020E94EC12F095
:101E7000000E206E0A0E1F6E2AEC12F0280EC9EC1E
:101E800012F00C0EC9EC12F0010EC9EC12F01200A7
:101E9000000E276E000E286E000E296E000E2A6EB0
:101EA0002350241025102610D8B459EF0FF05BEF03
:101EB0000FF091EF0FF0010E2B6E65EF0FF0D89041
:101EC00023362436253626362B2A26AE6AEF0FF027
:101ED0006CEF0FF05FEF0FF0D890273628362936D9
:101EE0002A3623501F5C2450205825502158265054
:101EF0002258D8A07EEF0FF080EF0FF089EF0FF09F
:101F000023501F5E2450205A2550215A2650225A11
:101F10002780D89026322532243223322B2E6CEFA4
:101F20000FF027C01FF028C020F029C021F02AC0E0
:101F300022F01200000E326E000E316EC9EF0FF06B
:101F400031502D242F6E32502E20306E2FC0F6FFD0
:101F500030C0F7FF0800F5500A0AD8A4B2EF0FF01E
:101F6000B4EF0FF0B9EF0FF0C00EC9EC12F0314A28
:101F7000322A31502D242F6E32502E20306E2FC039
:101F8000F6FF30C0F7FF0800F550BAEC12F0314A06
:101F9000322A31502D242F6E32502E20306E2FC019
:101FA000F6FF30C0F7FF0800F5500009D8A4DBEFBA
:101FB0000FF0DDEF0FF0A0EF0FF0120030503110F6
:101FC00032103310D8B4E7EF0FF0E9EF0FF019EF4C
:101FD00010F0010E346EF3EF0FF0D890303631363A
:101FE00032363336342A33AEF8EF0FF0FAEF0FF013
:101FF000EDEF0FF030502C5C31502D5832502E58F0
:1020000033502F58D8A007EF10F009EF10F011EF60
:1020100010F030502C5E31502D5A32502E5A335021
:102020002F5AD8903332323231323032342EFAEFE6
:102030000FF02CC02CF02DC02DF02EC02EF02FC094
:102040002FF01200000E246E000E236E215022107D
:10205000D8B42DEF10F02FEF10F057EF10F0010E65
:10206000256E37EF10F0D89021362236252A22AE81
:102070003CEF10F03EEF10F033EF10F0D890233625
:10208000243621501F5C22502058D8A04AEF10F06F
:102090004CEF10F051EF10F021501F5E2250205AEB
:1020A0002380D89022322132252E3EEF10F023C01B
:1020B0001FF024C020F012002B6E010ECB24236EE3
:1020C000246A000E24222BC025F0266AA7EC12F009
:1020D00023C02CF024C02DF02CC01FF02DC020F008
:1020E000000E226E190E216E22EC10F01FC02CF093
:1020F00020C02DF0FF0E2C16030E2D162CC029F03B
:102100002DC02AF0D8902A322932D8902A3229328A
:102110002950BB6E2CC029F0030E29162938F00B6C
:10212000BA1212002B6E2BC02AF02A3A0F0E2A1672
:102130002A50256E266A6BEC11F0000E206E1D0EE3
:102140001F6E28C021F029C022F00EEC09F0B6EC79
:1021500011F02BC02AF00F0E2A162A50256E266A7F
:102160006BEC11F0000E206E1D0E1F6E28C021F0CA
:1021700029C022F00EEC09F0B6EC11F012001F6E2F
:102180001F50D8A4C6EF10F0C8EF10F0CAEF10F03F
:10219000EBEF10F0000E206E280E2064D2EF10F04E
:1021A000D4EF10F0D6EF10F0E8EF10F0000E216E33
:1021B000020E2164DEEF10F0E0EF10F0E2EF10F01D
:1021C000E5EF10F0212AD8EF10F0202ACCEF10F024
:1021D0001F06C0EF10F01200366E3550D8A4F3EF92
:1021E00010F0F5EF10F0F7EF10F036C01CF03504EA
:1021F000D8A4FDEF10F0FFEF10F001EF11F036C0A2
:102200001BF0020E3518D8A408EF11F00AEF11F0F8
:102210000CEF11F036C01AF0030E3518D8A413EFE6
:1022200011F015EF11F017EF11F036C019F0120090
:10223000000E206E180E1F6E000E226E000E216E14
:1022400035EC0AF0000E206E190E1F6E000E226E85
:10225000000E216E35EC0AF0000E206E1A0E1F6E75
:10226000000E226E000E216E35EC0AF0000E206E7C
:102270001B0E1F6E000E226E000E216E35EC0AF052
:10228000D7EC11F01200C30EC216205007E1030E66
:102290001F5CD8B04EEF11F050EF11F054EF11F079
:1022A0001F44E846FC0BC212C282C2B25AEF11F0C0
:1022B0005CEF11F055EF11F0C4CF21F0226A2150EC
:1022C000226E216AC3502126000E222221C01FF057
:1022D00022C020F01200000E206E080E1F6E000EAD
:1022E000226E000E216E0EEC09F0000E276E000E1D
:1022F000206E1E0E1F6E800E2514216E226A0EECBB
:1023000009F057EC12F0D89025362636272A070E0A
:1023100027648DEF11F08FEF11F077EF11F042ECA1
:1023200012F01200000E206E000E1F6E000E226EC4
:10233000010E216E35EC0AF0000E206E010E1F6EAC
:10234000000E226E010E216E35EC0AF0000E206E9A
:10235000020E1F6E000E226E010E216E35EC0AF089
:10236000C2800C0EC16EAA0EC06E1200000E206E4E
:102370001C0E1F6E000E226E010E216E0EEC09F077
:10238000000E206E050E1F6EFCEC12F0000E206E8B
:102390001C0E1F6E000E226E000E216E0EEC09F058
:1023A000000E206E050E1F6EFCEC12F01200000EE7
:1023B000206E1F0E1F6E000E226E000E216E35EC79
:1023C0000AF0000E206E080E1F6E000E226E000E28
:1023D000216E35EC0AF0000E206E1E0E1F6E000EF0
:1023E000226E000E216E35EC0AF01200F20EF66E2F
:1023F000250EF76E000EF86E00EE39F010EE06F0C6
:102400000900F5CFEEFFE550E150FAE100EE01F0F2
:102410001E0EEE6AE806FDE1000EF86E000163EFA5
:1024200003F0D7EC11F0000E206E0A0E1F6E000EA6
:10243000226E010E216E35EC0AF0000E206E090EA0
:102440001F6E000E226E010E216E35EC0AF00C0E8E
:10245000C16E1200000E236E000E226E32EF12F0DB
:10246000224A232A1F50225C2350800A216E2050CA
:10247000800A2158D8A03FEF12F041EF12F030EF60
:1024800012F01200000E206E1F0E1F6E000E226E44
:10249000010E216E0EEC09F0000E206E1F0E1F6E55
:1024A000000E226E000E216E0EEC09F01200000EDE
:1024B000206E080E1F6E000E226E010E216E0EECB5
:1024C00009F0000E206E080E1F6E000E226E000E28
:1024D000216E0EEC09F012001504D8A472EF12F070
:1024E00074EF12F080EF12F0640E5CEC10F0FA0E54
:1024F000BFEC10F0000E5CEC10F0020ED8EC12F005
:102500001200480E1F6EE80E206E010E216E000EA6
:10251000226E2DC023F02EC024F0256A266A62ECBC
:102520000DF01F04CB6E12002A6E2AC025F0266A19
:102530006BEC11F0000E206E1D0E1F6E28C021F0F6
:1025400029C022F00EEC09F0B6EC11F01200235075
:102550002502F3CF27F0F4CF28F023502602F350C2
:10256000282624502502F350282627C023F028C00F
:1025700024F012002C6E000E296E010E286E2C50D5
:1025800092EC10F0000E206E500E1F6EFCEC12F05C
:1025900012002C6E000E296E000E286E2C5092EC4C
:1025A00010F0000E206E020E1F6E2AEC12F01200C8
:1025B000000E226EFA0EBFEC10F0222A030E2264E7
:1025C000E4EF12F0E6EF12F0DAEF12F0120094925C
:1025D000030ECA12CA840C0EBA6E000E2E6E640E62
:1025E0002D6E81EC12F012000FC01FF010C020F011
:0A25F000120010000907070712008F
:020000040020DA
:08000000FFFFFFFFFFFFFFFF00
:020000040030CA
:0E000000FF027100FF8380FF0FC00FE00F4072
:00000001FF
